{
  "contractName": "Addition",
  "abi": [
    {
      "inputs": [],
      "stateMutability": "nonpayable",
      "type": "constructor"
    },
    {
      "inputs": [],
      "name": "sumation",
      "outputs": [
        {
          "internalType": "int256",
          "name": "",
          "type": "int256"
        }
      ],
      "stateMutability": "view",
      "type": "function",
      "constant": true
    },
    {
      "inputs": [
        {
          "internalType": "int256",
          "name": "number1",
          "type": "int256"
        },
        {
          "internalType": "int256",
          "name": "number2",
          "type": "int256"
        }
      ],
      "name": "addTwoNumbers",
      "outputs": [],
      "stateMutability": "nonpayable",
      "type": "function"
    },
    {
      "inputs": [],
      "name": "displaySum",
      "outputs": [
        {
          "internalType": "int256",
          "name": "",
          "type": "int256"
        }
      ],
      "stateMutability": "view",
      "type": "function",
      "constant": true
    }
  ],
  "bytecode": "0x608060405234801561001057600080fd5b5060008081905550610211806100276000396000f3fe608060405234801561001057600080fd5b50600436106100415760003560e01c80636321e71a14610046578063801b0eef14610062578063d9f2ca4114610080575b600080fd5b610060600480360381019061005b91906100fe565b61009e565b005b61006a6100b4565b604051610077919061014d565b60405180910390f35b6100886100bd565b604051610095919061014d565b60405180910390f35b80826100aa9190610197565b6000819055505050565b60008054905090565b60005481565b600080fd5b6000819050919050565b6100db816100c8565b81146100e657600080fd5b50565b6000813590506100f8816100d2565b92915050565b60008060408385031215610115576101146100c3565b5b6000610123858286016100e9565b9250506020610134858286016100e9565b9150509250929050565b610147816100c8565b82525050565b6000602082019050610162600083018461013e565b92915050565b7f4e487b7100000000000000000000000000000000000000000000000000000000600052601160045260246000fd5b60006101a2826100c8565b91506101ad836100c8565b9250828201905082811215600083121683821260008412151617156101d5576101d4610168565b5b9291505056fea2646970667358221220c6d0931e2d2966ef8fca74f4e564c6b3595d5c863fbb73d315eb71590c8c672564736f6c63430008130033",
  "immutableReferences": {},
  "source": "// SPDX-License-Identifier: MIT\npragma solidity 0.8.19;\n\ncontract Addition {\n   int public sumation;\n   constructor() public{\n    sumation = 0;\n   }\n  function addTwoNumbers(int number1,int number2) public  {\n      sumation = number1 + number2;\n  }\n  function displaySum() public view returns(int) {\n    return sumation;\n  }\n}\n",
  "sourcePath": "D:\\workspace\\addNumbers\\contracts\\Addition.sol",
  "compiler": {
    "name": "solc",
    "version": "0.8.19+commit.7dd6d404.Emscripten.clang"
  },
  "schemaVersion": "3.4.16",
  "updatedAt": "2024-05-23T12:54:34.726Z",
  "networkType": "ethereum",
  "devdoc": {
    "kind": "dev",
    "methods": {},
    "version": 1
  },
  "userdoc": {
    "kind": "user",
    "methods": {},
    "version": 1
  }
}